:020000040800F2
:10000000980400209114000801140008031400084B
:1000100000000000000000000000000000000000E0
:1000200000000000000000000000000005140008AF
:100030000000000000000000071400080914000878
:10004000630E000800000000FF1000084F110008B8
:1000500011140008271300085B1400086714000837
:1000600000000000C5140008C7140008C9140008E7
:10007000CB140008CD140008CF14000800000000C5
:10008000D11400080000000000000000D314000894
:1000900000000000D5140008D7140008D914000887
:1000A00000000000DB14000800000000131400082A
:1000B00038B5040014D0250074356868002803D1D1
:1000C0002870200000F094FB2420686020680168FC
:1000D000012291430160200000F08CF9012801D138
:1000E000012032BD606A002802D0200000F003FA2F
:1000F00020684168084A0A404260206881680822F6
:1001000091438160FFE72068016801220A43026091
:10011000200000F054FA32BDFFF7FFFFF8B584B0BD
:10012000040020680190C06921680968019A9268FA
:100130000092AB4A02402500583520230B40029321
:1001400020230340039300264027002A0AD1002BD6
:100150000DD0029A002A0AD0E968002901D02000B7
:1001600088473AE1009AD20702D49E4A0A407AD0E0
:10017000C20707D5CA0505D50122019B1A62AB6AE1
:100180001A43AA62820709D5009AD20706D502222D
:1001900023681A62AA6A04231343AB620422104242
:1001A00008D0009BDB0705D523681A62AA6A0223E0
:1001B0001343AB62082210420AD0029B002B02D1EB
:1001C000009BDB0704D523681A62AB6A1A43AA6254
:1001D0007A01104007D0480105D520680262A86A5C
:1001E00020210143A962A86A002832D00398002880
:1001F00007D00298002804D0E968002901D0200027
:100200008847A86A21688968394002D128210140BD
:1002100024D0200000F090FA20688068074019D0B0
:10022000EFF31080012181F3108821688A68402350
:100230009A438A6080F31088A86900280AD06A4926
:100240004163A86900F035FB002802D0A869416B22
:100250008847C2E0200000F050FBBEE0200000F024
:100260004CFBAE62B9E0AA68012A00D094E01022EB
:10027000104200D0114200D18EE00198026210209D
:10028000C0430121C94322689268174049D0AA6936
:1002900013685B689BB2002BE4D05827E75BBB4236
:1002A000E0DA6B809269202A35D0EFF31082009259
:1002B000012282F31088226813684C4F1F40176098
:1002C000009A82F31088EFF31082012383F31088E1
:1002D00023689F683940996082F31088EFF310819A
:1002E000012282F31088226893684027BB43936001
:1002F00081F3108820216962AE60EFF31081012242
:1003000082F31088226813681840106081F3108807
:10031000A86900F0ADFA5820205A6988411A89B2BC
:1003200036E05822A25A6B88D21A6B461A806A8825
:10033000002A52D06A461288002A4ED0EFF310826B
:100340000192012282F3108822681368284F1F400F
:100350001760019A82F31088EFF31082012383F370
:10036000108823689F683940996082F310882021A3
:100370006962AE60EE60EFF31081012282F31088B3
:10038000226813681840106081F31088684601885D
:10039000200000F0B3FA20E08022104207D00A408B
:1003A00005D02969002918D02000884715E0384079
:1003B00013D00F4011D0EFF31080012181F310888A
:1003C00021680A6840239A430A6080F3108820203D
:1003D00028622E61200000F092FA05B0F0BD000006
:1003E0000F08000020010004A5070008FFFEFFFF22
:1003F000DFFEFFFFF8B5050000260024286801682D
:10040000884A0A40A96811432A690A436969114365
:10041000EA690A4302604168834A0A40E968114375
:1004200041608168814A0A40A96911432A6A0A43E6
:1004300082607F4800688007800F05D0022809D0BD
:1004400006D3032802D007E0002206E0022204E0DF
:10045000042202E0082200E01022AE4FAE488021C4
:100460000902EB698B4222D1002A06D0022A19D058
:10047000042A19D0082A04D038E000F0A6FC0100B4
:1004800035D06A68480051084018110000F0CEFCD1
:1004900080B201001039B94228D207400007400F4E
:1004A00038431BE00100ECE700F072FCE7E7002AAC
:1004B00006D0022A08D0042A13D0082A14D015E046
:1004C00000F083FC002812D069684A08801800F008
:1004D000ADFC80B201001039B94207D22968C8606A
:1004E00005E000F055FCEDE70800EDE701246E663D
:1004F000AE662000F2BD2421415CC90706D5016823
:100500004A68864B1340826A1A434A602421415C40
:10051000890706D501684A68814B1340C26A1A43AD
:100520004A602421415C490706D501684A687D4B31
:100530001340026B1A434A602421415C090706D527
:1005400001684A68784B1340426B1A434A60242181
:10055000415CC90606D501688A68744B1340826BFA
:100560001A438A602421415C890606D501688A689D
:100570002B4B1340C26B1A438A602421415C49060D
:1005800011D501684A686A4B1340026C1A434A60ED
:10059000026C80235B039A4205D14A68654B134085
:1005A000426C1A434A602421415C090606D5016861
:1005B0004A68784B1340806C184348607047F8B520
:1005C000040000257430C56000F04CFC0700724E3A
:1005D00020680068000709D500963B0000228021B2
:1005E0008903200000F026F800280DD1206800685B
:1005F00040070BD500963B0000228021C903200054
:1006000000F018F8002801D00320F2BD2100743159
:1006100020204860886025660D700020F2BD000033
:10062000FFDFFFFFF369FFFFFFCFFFFFFFF4FFFFD7
:1006300030100240FEB5089F8024240100250600EA
:1006400001916846027002933068C06901990140C7
:100650000198814201D1012000E00020694609781B
:10066000884254D10020C0438742EDD000F0FAFB0D
:100670000299401A874201D3002F1FD1EFF3108057
:10068000012181F3108831680A68444B13400B60E4
:1006900080F31088EFF31080012181F31088316816
:1006A0008A6801239A438A6080F31088300074308E
:1006B00020214160816005700320FEBD3068006824
:1006C0004007C1D53068C0692040BDD030680462A1
:1006D000EFF31080012181F3108831680A682F4BF5
:1006E00013400B6080F31088EFF31080012181F339
:1006F000108831688A6801239A438A6080F31088E1
:1007000030007430202141608160C160D3E7002057
:10071000FEBD0000F0FF000000127A00FFFFFDFFA9
:10072000FFFFFEFFFFFFFBFFFF7FFFFFFFEFFFFF6E
:10073000FFFFEFFFFFFF9FFF10B5EFF310810122D6
:1007400082F3108802681368154C1C40146081F312
:100750001088EFF31081012282F3108802689368F9
:100760000124A343936081F31088016E01290BD10A
:10077000EFF31081012282F31088026813681024BD
:10078000A343136081F310882021C1670021016613
:10079000416610BDFFFFF7FFFFFFFF015FFEFFFF98
:1007A000DFFEFFFF80B5406A0100523100220A815E
:1007B0000A8000F0A2F801BD80B5012029490A682D
:1007C00002430A600A6810400090009880204005AB
:1007D0004A6802434A604968084000900098002235
:1007E0000021042000F061FB042000F062FB01BD49
:1007F00010B586B004001422002101A800F07EFB91
:100800002068194988422AD118488021C9014268C4
:100810000A43426042681140009100998021890298
:1008200002680A4302600068014000910098C020FD
:10083000C000019002200290002003900320049049
:100840000120059001A99020C00500F061FB002265
:1008500000211B2000F029FB1B2000F02AFB06B022
:1008600010BD000018100240003801401410024072
:1008700010B500212122825C022A05D00422826365
:1008800020228154012010BD026813680E24A34366
:100890001360026813680124A34313600122036CF0
:1008A0009C40C36B5C602123C254202281540020F1
:1008B00010BD70B50022002401212123C35C022B4E
:1008C00003D004228263012415E003681D680E260C
:1008D000B5431D6003681D688D431D60036C0125D1
:1008E0009D40C36B5D602123C15420214254416B64
:1008F000002900D08847200070BD704770477047BE
:10090000FEB5060019D0AD4C3078C00717D580274A
:10091000BF0260680C210140042909D060680C21E5
:100920000140082941D160687908084088423CD1DB
:100930002068074003D07068002800D19BE1307820
:1009400080071AD5F827FF4360680C21014007D0C3
:1009500060680C21014008295AD16068C00357D44F
:100960002068800703D5F068012800D083E1206863
:1009700007403069C000384320603078000778D5E0
:100980000227F0690028606A64D001210143616296
:1009900000F068FA0500606A38406AD100F062FA37
:1009A000401B0228F7D90320FEBD73687908012B8C
:1009B00009D0B348B34A002B09D0052B07D12068D2
:1009C0008A000243226020680143216005E021681B
:1009D0000A402260216808402060706800280BD01F
:1009E00000F040FA050020683840A8D100F03AFA3B
:1009F000401B6528F7D3D6E700F034FA05002068DD
:100A000038409CD000F02EFA401B6528F7D3CAE787
:100A1000F068002820680ED001210143216000F019
:100A200021FA050020688007A1D400F01BFA401BC2
:100A30000228F7D9B7E701218843206000F012FAB5
:100A400005002068800798D500F00CFA401B0228AA
:100A5000F7D9A8E701218843606200F003FA050096
:100A6000606A384005D000F0FDF9401B0228F7D934
:100A700099E704273068384062D000200190B8061A
:100A8000E169014008D1E1690143E161E1690840A0
:100A900000900098012001907B480068C00512D4A6
:100AA00079480068A10D01437748016000F0DAF948
:100AB000050075480068C00505D400F0D3F9401B57
:100AC0006528F6D36FE7B068012808D0002801D167
:100AD000206A09E00528206A06D138432062206A8E
:100AE00001210143216205E0012188432062206A3F
:100AF000B8432062A4480090B06800280CD000F0F1
:100B0000B1F90500206A800713D400F0ABF9401B4F
:100B100000998842F6D346E700F0A4F90500206A60
:100B2000800706D500F09EF9401B00998842F6D355
:100B300039E70198002803D0E06994490140E16158
:100B40003078C0061DD57069F825ED43012837D1EE
:100B5000606B07436763606B01210143616300F0D1
:100B600081F90700606B800705D400F07BF9C01B9A
:100B70000228F7D917E7606B0540B069C000284329
:100B80006063306A002878D061680C220A40082A25
:100B90005CD08027BF0492490228206848D10140D8
:100BA000216000F05FF905002068384022D000F095
:100BB00059F9401B0228F7D9F5E600BF00100240A2
:100BC0000421C9438842606B02D101406163D2E7CE
:100BD00007436763606B01218843606300F042F95B
:100BE0000500606B8007CCD500F03CF9401B022863
:100BF000F7D9D8E6E06A0F218843F16A0143E16240
:100C0000606878490140B06A0843716A01436160D5
:100C1000206879080143216000F024F9050020686C
:100C200038402AD100F01EF9401B0228F7D9BAE655
:100C30000140216000F016F90500206838401CD002
:100C400000F010F9401B0228F7D9ACE6012812D0B9
:100C50006068E16A802252020240736A9A420AD1B5
:100C60000907090FF26A914205D1F0218903014079
:100C7000B06A814201D00120FEBD0020FEBD00000F
:100C8000FFFFFBFFFFFFFEFF00700040F8B5040010
:100C900060D0009154480068C107C90F0098814294
:100CA0000CD25148016801229143009A0A43026024
:100CB0000068C107C90F009881424BD121684B4D94
:100CC000022001420CD0490704D56968E022D20015
:100CD0000A436A606968F0229143A2680A436A6025
:100CE00001272168394025D06168012902D128688F
:100CF000800303E0022903D12868800103D429E09E
:100D00002A68104026D06868032290430143696036
:100D100000F0A8F8060068680C21014060688000B7
:100D2000814207D000F09EF8801B17498842F2D319
:100D30000320F2BD2C48009902683A4091420BD240
:100D40000168B943009A0A430260006807400098AE
:100D5000874201D00120F2BD2078400705D56868A0
:100D600023490140E0680843686000F011F8214918
:100D70006A681206120F895CC8401F490860032088
:100D800000F09AF90020F2BD89130000FFFFFFEF89
:100D90001A4B19681A480C220A40082A00D07047DA
:100DA00030B50F2219A48D0C1540645D9B6AC903F0
:100DB00007D500BF19A11A40895C00F037F86043DD
:100DC00030BD20000F49484330BD0B4800680E4934
:100DD0000A4A12685205520F895CC84070470000E9
:100DE000FFFFFFFEFFFFC2FF002002400010024095
:100DF000FFF8FFFF801400080C00002004100240E0
:100E000000127A0000093D00BC140008020304052A
:100E1000060708090A0B0C0D0E0F1010010203043F
:100E200005060708090A0B0C0D0E0F10094214D015
:100E300088420FD30122030C01D1000412040023C5
:100E400000185B418B4200D35B1A5241F8D3190062
:100E50001000704701000020704708B500F04EF9FF
:100E600008BDFEE701484068704700BF0000002051
:100E700010B5C20018231340FF249C40E2438907A9
:100E8000090E9940030004D418489B089B00C01821
:100E900006E0174B0007000F08388008800018187C
:100EA00003681A401143016010BD80B5FFF7E0FFF1
:100EB00001BD010005D40121C006C00E81400D48CE
:100EC0000160704710B5401E80214904884201D35B
:100ED000012010BD084C606003210020C043FFF7D3
:100EE000C7FF0020A0600721216010BD00E400E0E2
:100EF0001CED00E000E100E010E000E010B50400AF
:100F0000080011000200200000F0FAF8200010BDD7
:100F1000FFB500220F2302932CE0052402E0604D70
:100F2000A842FAD16D462D78AC403443019D2C6027
:100F30005C4C2668DC4326404D68ED0300D51E431B
:100F4000584D2E606E6826404F68BF0300D51E4383
:100F50006E60AE6826404F68FF0200D51E43AE604B
:100F6000EE6834404E68B60202D526001C003443B9
:100F7000EC60521C0B681C00D44000D18FE00124AF
:100F800094402340F5D055000327AF40FE4301961F
:100F90004E68B707BF0F012F03D0B607B60F022E5A
:100FA0000ED18768019E3E40CF68AF4037438760CF
:100FB0004668A6434C68E706FF0F974037434760F3
:100FC00094006E4674700C79A407A40F032C26D0ED
:100FD000C468019E26408C68AC403443C4600C79E0
:100FE000A407A40F022C1AD1D408A4000419266A5D
:100FF00003966E4677781C263E406F463E70039EF1
:10100000B446029F6E463678B7406646BE43B44645
:101010000F696E463678B7406646374327620768E1
:101020000324019E3E404F682740BC462F00654682
:10103000BD40354305604D6826042E4099D00125FA
:10104000194E36682E43184F3E603E682E4001967A
:10105000019E164E9708BF00F61901963668039652
:101060006E4677780C263E406F463E70039EB4462F
:10107000029F6E463678B7406646BE439027FF050E
:10108000B84201D100244DE7094FB84201D10124F3
:1010900048E7084DA84200D041E7022442E7FFBDDF
:1010A000000C0048000401401810024008000140F4
:1010B000000400480008004838B505000D4CFA202F
:1010C00080002178FFF7B2FE01000B480068FFF7AF
:1010D000ADFEFFF7F7FE00280AD1042D08D200224A
:1010E00029000020C043FFF7E0FEA560002032BDCC
:1010F000012032BD000000200C0000207047FEE7F8
:101100001206130A1A43130C1A4300BF094205D0F2
:10111000830705D00270401C491EF9D170470000BA
:101120001300103906D330B41400150010393CC038
:10113000FCD230BC490700D30CC000D504C08900E4
:1011400002D30280801C002900D502707047FEE7A0
:10115000F8B50400374D2068C00356D50020009034
:10116000802040052968014008D129680143296091
:101170002968084000900098012000902E4F3868A0
:10118000C00510D43868A90D01433960FFF76AFE25
:1011900006003868C00506D4FFF764FE801B65288A
:1011A000F7D30320F2BDC020800069680140234FBF
:1011B00000291ED06268104081421AD06868384009
:1011C0006968802252020A436A6069681C4A0A40C0
:1011D0006A606860C0070CD5FFF744FE06006868C7
:1011E000800706D4FFF73EFE801B16498842F6D3DF
:1011F000D7E768680740606838436860009800284F
:1012000003D028681049014029602078C00705D51F
:10121000686903218843A1680143696120788006D9
:1012200005D5686910218843E168014369610020A0
:10123000F2BD00001C10024000700040FFFCFFFFE8
:10124000FFFFFEFF89130000FFFFFFEF80B500F0F6
:101250006BF800F031F88020C00314490A6802439B
:101260000A600A68104000900098802080020A6896
:1012700002430A6009680840009000980C480D4934
:10128000016096210902416000218160C160016115
:101290000C2242618161C16101624162FEF708FF77
:1012A000002801D000F03DF8FEE7000014100240D5
:1012B000100000200038014038B594B030220021E1
:1012C00008A8FFF71BFE102200216846FFF716FE54
:1012D0001022002104A8FFF711FE012408940994AC
:1012E0000025109508A8FFF70BFB002801D000F09F
:1012F00018F8072000900194029503950021684694
:10130000FFF7C4FC002801D072B6FEE704940695EE
:1013100004A8FFF71DFF002801D072B6FEE715B044
:1013200030BD72B6FEE7FEE780B5064801681022C0
:101330000A4302600320FFF7BFFEFFF73DFA0020DB
:1013400002BD00000020024070B40123002413E01D
:101350000168001D194202D04D466D1E49190C60EE
:10136000091D121F042AFAD20D00960701D50C8020
:10137000AD1C1A4000D02C700268001D002AE7D175
:1013800070BC704730B401220EE00368C318446893
:101390000830144202D04D466D1E64191D68256048
:1013A0001B1D241D091FF9D10168001D0029ECD166
:1013B00030BC704710B5074979441831064C7C445D
:1013C000163404E0081D0A68891888470100A14204
:1013D000F8D110BD08000000280000006DFFFFFFDD
:1013E00084000000100000200000000099FFFFFFB3
:1013F00010000000AC000000000000200000000011
:10140000FEE7FEE77047704780B500F009F801BDC0
:10141000704780B50148FEF781FE01BD1000002035
:101420000248416802788918416070470000002036
:1014300000F00DF8002801D0FFF7BCFF00BF00BF8F
:10144000002000BF00BFFFF701FF00F002F80120FD
:10145000704780B500F002F801BDFEE70746384648
:1014600000F002F8FBE7FEE780B500BF00BF024ACC
:1014700011001820ABBEFBE72600020070470000F9
:101480000000000000000000010203040607080934
:1014900001488047014800477D140008B114000846
:1014A00001000000000000000400000000127A00AB
:1014B00000BF00BF00BF00BFFFF7BAFF0000000081
:1014C00001020304FEE7FEE7FEE7FEE7FEE7FEE7B4
:0C14D000FEE7FEE7FEE7FEE7FEE7FEE7B2
:04000005080014B12A
:00000001FF
